{
  "contractName": "SaleToken",
  "abi": [
    {
      "inputs": [
        {
          "internalType": "uint256",
          "name": "_capAmount",
          "type": "uint256"
        }
      ],
      "stateMutability": "nonpayable",
      "type": "constructor"
    },
    {
      "anonymous": false,
      "inputs": [
        {
          "indexed": true,
          "internalType": "address",
          "name": "owner",
          "type": "address"
        },
        {
          "indexed": true,
          "internalType": "address",
          "name": "spender",
          "type": "address"
        },
        {
          "indexed": false,
          "internalType": "uint256",
          "name": "value",
          "type": "uint256"
        }
      ],
      "name": "Approval",
      "type": "event"
    },
    {
      "anonymous": false,
      "inputs": [
        {
          "indexed": true,
          "internalType": "address",
          "name": "previousOwner",
          "type": "address"
        },
        {
          "indexed": true,
          "internalType": "address",
          "name": "newOwner",
          "type": "address"
        }
      ],
      "name": "OwnershipTransferred",
      "type": "event"
    },
    {
      "anonymous": false,
      "inputs": [
        {
          "indexed": true,
          "internalType": "address",
          "name": "from",
          "type": "address"
        },
        {
          "indexed": true,
          "internalType": "address",
          "name": "to",
          "type": "address"
        },
        {
          "indexed": false,
          "internalType": "uint256",
          "name": "value",
          "type": "uint256"
        }
      ],
      "name": "Transfer",
      "type": "event"
    },
    {
      "inputs": [
        {
          "internalType": "address",
          "name": "owner",
          "type": "address"
        },
        {
          "internalType": "address",
          "name": "spender",
          "type": "address"
        }
      ],
      "name": "allowance",
      "outputs": [
        {
          "internalType": "uint256",
          "name": "",
          "type": "uint256"
        }
      ],
      "stateMutability": "view",
      "type": "function",
      "constant": true
    },
    {
      "inputs": [
        {
          "internalType": "address",
          "name": "spender",
          "type": "address"
        },
        {
          "internalType": "uint256",
          "name": "amount",
          "type": "uint256"
        }
      ],
      "name": "approve",
      "outputs": [
        {
          "internalType": "bool",
          "name": "",
          "type": "bool"
        }
      ],
      "stateMutability": "nonpayable",
      "type": "function"
    },
    {
      "inputs": [
        {
          "internalType": "address",
          "name": "account",
          "type": "address"
        }
      ],
      "name": "balanceOf",
      "outputs": [
        {
          "internalType": "uint256",
          "name": "",
          "type": "uint256"
        }
      ],
      "stateMutability": "view",
      "type": "function",
      "constant": true
    },
    {
      "inputs": [],
      "name": "cap",
      "outputs": [
        {
          "internalType": "uint256",
          "name": "",
          "type": "uint256"
        }
      ],
      "stateMutability": "view",
      "type": "function",
      "constant": true
    },
    {
      "inputs": [],
      "name": "decimals",
      "outputs": [
        {
          "internalType": "uint8",
          "name": "",
          "type": "uint8"
        }
      ],
      "stateMutability": "view",
      "type": "function",
      "constant": true
    },
    {
      "inputs": [
        {
          "internalType": "address",
          "name": "spender",
          "type": "address"
        },
        {
          "internalType": "uint256",
          "name": "subtractedValue",
          "type": "uint256"
        }
      ],
      "name": "decreaseAllowance",
      "outputs": [
        {
          "internalType": "bool",
          "name": "",
          "type": "bool"
        }
      ],
      "stateMutability": "nonpayable",
      "type": "function"
    },
    {
      "inputs": [
        {
          "internalType": "address",
          "name": "spender",
          "type": "address"
        },
        {
          "internalType": "uint256",
          "name": "addedValue",
          "type": "uint256"
        }
      ],
      "name": "increaseAllowance",
      "outputs": [
        {
          "internalType": "bool",
          "name": "",
          "type": "bool"
        }
      ],
      "stateMutability": "nonpayable",
      "type": "function"
    },
    {
      "inputs": [],
      "name": "name",
      "outputs": [
        {
          "internalType": "string",
          "name": "",
          "type": "string"
        }
      ],
      "stateMutability": "view",
      "type": "function",
      "constant": true
    },
    {
      "inputs": [],
      "name": "owner",
      "outputs": [
        {
          "internalType": "address",
          "name": "",
          "type": "address"
        }
      ],
      "stateMutability": "view",
      "type": "function",
      "constant": true
    },
    {
      "inputs": [],
      "name": "renounceOwnership",
      "outputs": [],
      "stateMutability": "nonpayable",
      "type": "function"
    },
    {
      "inputs": [],
      "name": "symbol",
      "outputs": [
        {
          "internalType": "string",
          "name": "",
          "type": "string"
        }
      ],
      "stateMutability": "view",
      "type": "function",
      "constant": true
    },
    {
      "inputs": [],
      "name": "totalSupply",
      "outputs": [
        {
          "internalType": "uint256",
          "name": "",
          "type": "uint256"
        }
      ],
      "stateMutability": "view",
      "type": "function",
      "constant": true
    },
    {
      "inputs": [
        {
          "internalType": "address",
          "name": "to",
          "type": "address"
        },
        {
          "internalType": "uint256",
          "name": "amount",
          "type": "uint256"
        }
      ],
      "name": "transfer",
      "outputs": [
        {
          "internalType": "bool",
          "name": "",
          "type": "bool"
        }
      ],
      "stateMutability": "nonpayable",
      "type": "function"
    },
    {
      "inputs": [
        {
          "internalType": "address",
          "name": "from",
          "type": "address"
        },
        {
          "internalType": "address",
          "name": "to",
          "type": "address"
        },
        {
          "internalType": "uint256",
          "name": "amount",
          "type": "uint256"
        }
      ],
      "name": "transferFrom",
      "outputs": [
        {
          "internalType": "bool",
          "name": "",
          "type": "bool"
        }
      ],
      "stateMutability": "nonpayable",
      "type": "function"
    },
    {
      "inputs": [
        {
          "internalType": "address",
          "name": "newOwner",
          "type": "address"
        }
      ],
      "name": "transferOwnership",
      "outputs": [],
      "stateMutability": "nonpayable",
      "type": "function"
    },
    {
      "inputs": [
        {
          "internalType": "uint256",
          "name": "_amount",
          "type": "uint256"
        }
      ],
      "name": "tokenPrice",
      "outputs": [
        {
          "internalType": "uint256",
          "name": "",
          "type": "uint256"
        }
      ],
      "stateMutability": "pure",
      "type": "function",
      "constant": true
    },
    {
      "inputs": [
        {
          "internalType": "address",
          "name": "_to",
          "type": "address"
        },
        {
          "internalType": "uint256",
          "name": "_amount",
          "type": "uint256"
        }
      ],
      "name": "mint",
      "outputs": [],
      "stateMutability": "payable",
      "type": "function",
      "payable": true
    },
    {
      "inputs": [
        {
          "internalType": "address",
          "name": "_owner",
          "type": "address"
        },
        {
          "internalType": "uint256",
          "name": "_amount",
          "type": "uint256"
        }
      ],
      "name": "withdraw",
      "outputs": [],
      "stateMutability": "nonpayable",
      "type": "function"
    },
    {
      "inputs": [],
      "name": "getBalance",
      "outputs": [
        {
          "internalType": "uint256",
          "name": "",
          "type": "uint256"
        }
      ],
      "stateMutability": "view",
      "type": "function",
      "constant": true
    }
  ],
  "bytecode": "0x60a06040523480156200001157600080fd5b50604051620024df380380620024df833981810160405281019062000037919062000316565b620000476200017860201b60201c565b600a620000559190620003f7565b8162000062919062000534565b6040518060400160405280600a81526020017f53616c655f546f6b656e000000000000000000000000000000000000000000008152506040518060400160405280600281526020017f53540000000000000000000000000000000000000000000000000000000000008152508160039080519060200190620000e69291906200024f565b508060049080519060200190620000ff9291906200024f565b5050506000811162000148576040517f08c379a00000000000000000000000000000000000000000000000000000000081526004016200013f9062000369565b60405180910390fd5b80608081815250505062000171620001656200018160201b60201c565b6200018960201b60201c565b5062000690565b60006012905090565b600033905090565b6000600560009054906101000a900473ffffffffffffffffffffffffffffffffffffffff16905081600560006101000a81548173ffffffffffffffffffffffffffffffffffffffff021916908373ffffffffffffffffffffffffffffffffffffffff1602179055508173ffffffffffffffffffffffffffffffffffffffff168173ffffffffffffffffffffffffffffffffffffffff167f8be0079c531659141344cd1fd0a4f28419497f9722a3daafe3b4186f6b6457e060405160405180910390a35050565b8280546200025d90620005ac565b90600052602060002090601f016020900481019282620002815760008555620002cd565b82601f106200029c57805160ff1916838001178555620002cd565b82800160010185558215620002cd579182015b82811115620002cc578251825591602001919060010190620002af565b5b509050620002dc9190620002e0565b5090565b5b80821115620002fb576000816000905550600101620002e1565b5090565b600081519050620003108162000676565b92915050565b6000602082840312156200032957600080fd5b60006200033984828501620002ff565b91505092915050565b6000620003516015836200038b565b91506200035e826200064d565b602082019050919050565b60006020820190508181036000830152620003848162000342565b9050919050565b600082825260208201905092915050565b6000808291508390505b6001851115620003ee57808604811115620003c657620003c5620005e2565b5b6001851615620003d65780820291505b8081029050620003e68562000640565b9450620003a6565b94509492505050565b6000620004048262000595565b915062000411836200059f565b9250620004407fffffffffffffffffffffffffffffffffffffffffffffffffffffffffffffffff848462000448565b905092915050565b6000826200045a57600190506200052d565b816200046a57600090506200052d565b81600181146200048357600281146200048e57620004c4565b60019150506200052d565b60ff841115620004a357620004a2620005e2565b5b8360020a915084821115620004bd57620004bc620005e2565b5b506200052d565b5060208310610133831016604e8410600b8410161715620004fe5782820a905083811115620004f857620004f7620005e2565b5b6200052d565b6200050d84848460016200039c565b92509050818404811115620005275762000526620005e2565b5b81810290505b9392505050565b6000620005418262000595565b91506200054e8362000595565b9250817fffffffffffffffffffffffffffffffffffffffffffffffffffffffffffffffff04831182151516156200058a5762000589620005e2565b5b828202905092915050565b6000819050919050565b600060ff82169050919050565b60006002820490506001821680620005c557607f821691505b60208210811415620005dc57620005db62000611565b5b50919050565b7f4e487b7100000000000000000000000000000000000000000000000000000000600052601160045260246000fd5b7f4e487b7100000000000000000000000000000000000000000000000000000000600052602260045260246000fd5b60008160011c9050919050565b7f45524332304361707065643a2063617020697320300000000000000000000000600082015250565b620006818162000595565b81146200068d57600080fd5b50565b608051611e33620006ac60003960006105b60152611e336000f3fe6080604052600436106101145760003560e01c806370a08231116100a0578063a9059cbb11610064578063a9059cbb146103aa578063d4ddce8a146103e7578063dd62ed3e14610424578063f2fde38b14610461578063f3fef3a31461048a57610114565b806370a08231146102c3578063715018a6146103005780638da5cb5b1461031757806395d89b4114610342578063a457c2d71461036d57610114565b806323b872dd116100e757806323b872dd146101d7578063313ce56714610214578063355274ea1461023f578063395093511461026a57806340c10f19146102a757610114565b806306fdde0314610119578063095ea7b31461014457806312065fe01461018157806318160ddd146101ac575b600080fd5b34801561012557600080fd5b5061012e6104b3565b60405161013b91906116e6565b60405180910390f35b34801561015057600080fd5b5061016b60048036038101906101669190611432565b610545565b60405161017891906116cb565b60405180910390f35b34801561018d57600080fd5b50610196610568565b6040516101a39190611888565b60405180910390f35b3480156101b857600080fd5b506101c1610570565b6040516101ce9190611888565b60405180910390f35b3480156101e357600080fd5b506101fe60048036038101906101f991906113e3565b61057a565b60405161020b91906116cb565b60405180910390f35b34801561022057600080fd5b506102296105a9565b60405161023691906118a3565b60405180910390f35b34801561024b57600080fd5b506102546105b2565b6040516102619190611888565b60405180910390f35b34801561027657600080fd5b50610291600480360381019061028c9190611432565b6105da565b60405161029e91906116cb565b60405180910390f35b6102c160048036038101906102bc9190611432565b610684565b005b3480156102cf57600080fd5b506102ea60048036038101906102e5919061137e565b6106dd565b6040516102f79190611888565b60405180910390f35b34801561030c57600080fd5b50610315610725565b005b34801561032357600080fd5b5061032c6107ad565b60405161033991906116b0565b60405180910390f35b34801561034e57600080fd5b506103576107d7565b60405161036491906116e6565b60405180910390f35b34801561037957600080fd5b50610394600480360381019061038f9190611432565b610869565b6040516103a191906116cb565b60405180910390f35b3480156103b657600080fd5b506103d160048036038101906103cc9190611432565b610953565b6040516103de91906116cb565b60405180910390f35b3480156103f357600080fd5b5061040e6004803603810190610409919061146e565b610976565b60405161041b9190611888565b60405180910390f35b34801561043057600080fd5b5061044b600480360381019061044691906113a7565b610994565b6040516104589190611888565b60405180910390f35b34801561046d57600080fd5b506104886004803603810190610483919061137e565b610a1b565b005b34801561049657600080fd5b506104b160048036038101906104ac9190611432565b610b13565b005b6060600380546104c290611a12565b80601f01602080910402602001604051908101604052809291908181526020018280546104ee90611a12565b801561053b5780601f106105105761010080835404028352916020019161053b565b820191906000526020600020905b81548152906001019060200180831161051e57829003601f168201915b5050505050905090565b600080610550610bda565b905061055d818585610be2565b600191505092915050565b600047905090565b6000600254905090565b600080610585610bda565b9050610592858285610dad565b61059d858585610e39565b60019150509392505050565b60006012905090565b60007f0000000000000000000000000000000000000000000000000000000000000000905090565b6000806105e5610bda565b9050610679818585600160008673ffffffffffffffffffffffffffffffffffffffff1673ffffffffffffffffffffffffffffffffffffffff16815260200190815260200160002060008973ffffffffffffffffffffffffffffffffffffffff1673ffffffffffffffffffffffffffffffffffffffff1681526020019081526020016000205461067491906118da565b610be2565b600191505092915050565b61068d81610976565b3410156106cf576040517f08c379a00000000000000000000000000000000000000000000000000000000081526004016106c690611728565b60405180910390fd5b6106d982826110ba565b5050565b60008060008373ffffffffffffffffffffffffffffffffffffffff1673ffffffffffffffffffffffffffffffffffffffff168152602001908152602001600020549050919050565b61072d610bda565b73ffffffffffffffffffffffffffffffffffffffff1661074b6107ad565b73ffffffffffffffffffffffffffffffffffffffff16146107a1576040517f08c379a0000000000000000000000000000000000000000000000000000000008152600401610798906117c8565b60405180910390fd5b6107ab6000611124565b565b6000600560009054906101000a900473ffffffffffffffffffffffffffffffffffffffff16905090565b6060600480546107e690611a12565b80601f016020809104026020016040519081016040528092919081815260200182805461081290611a12565b801561085f5780601f106108345761010080835404028352916020019161085f565b820191906000526020600020905b81548152906001019060200180831161084257829003601f168201915b5050505050905090565b600080610874610bda565b90506000600160008373ffffffffffffffffffffffffffffffffffffffff1673ffffffffffffffffffffffffffffffffffffffff16815260200190815260200160002060008673ffffffffffffffffffffffffffffffffffffffff1673ffffffffffffffffffffffffffffffffffffffff1681526020019081526020016000205490508381101561093a576040517f08c379a000000000000000000000000000000000000000000000000000000000815260040161093190611848565b60405180910390fd5b6109478286868403610be2565b60019250505092915050565b60008061095e610bda565b905061096b818585610e39565b600191505092915050565b600080633b9aca00836109899190611930565b905080915050919050565b6000600160008473ffffffffffffffffffffffffffffffffffffffff1673ffffffffffffffffffffffffffffffffffffffff16815260200190815260200160002060008373ffffffffffffffffffffffffffffffffffffffff1673ffffffffffffffffffffffffffffffffffffffff16815260200190815260200160002054905092915050565b610a23610bda565b73ffffffffffffffffffffffffffffffffffffffff16610a416107ad565b73ffffffffffffffffffffffffffffffffffffffff1614610a97576040517f08c379a0000000000000000000000000000000000000000000000000000000008152600401610a8e906117c8565b60405180910390fd5b600073ffffffffffffffffffffffffffffffffffffffff168173ffffffffffffffffffffffffffffffffffffffff161415610b07576040517f08c379a0000000000000000000000000000000000000000000000000000000008152600401610afe90611748565b60405180910390fd5b610b1081611124565b50565b610b1b610bda565b73ffffffffffffffffffffffffffffffffffffffff16610b396107ad565b73ffffffffffffffffffffffffffffffffffffffff1614610b8f576040517f08c379a0000000000000000000000000000000000000000000000000000000008152600401610b86906117c8565b60405180910390fd5b8173ffffffffffffffffffffffffffffffffffffffff166108fc829081150290604051600060405180830381858888f19350505050158015610bd5573d6000803e3d6000fd5b505050565b600033905090565b600073ffffffffffffffffffffffffffffffffffffffff168373ffffffffffffffffffffffffffffffffffffffff161415610c52576040517f08c379a0000000000000000000000000000000000000000000000000000000008152600401610c4990611828565b60405180910390fd5b600073ffffffffffffffffffffffffffffffffffffffff168273ffffffffffffffffffffffffffffffffffffffff161415610cc2576040517f08c379a0000000000000000000000000000000000000000000000000000000008152600401610cb990611768565b60405180910390fd5b80600160008573ffffffffffffffffffffffffffffffffffffffff1673ffffffffffffffffffffffffffffffffffffffff16815260200190815260200160002060008473ffffffffffffffffffffffffffffffffffffffff1673ffffffffffffffffffffffffffffffffffffffff168152602001908152602001600020819055508173ffffffffffffffffffffffffffffffffffffffff168373ffffffffffffffffffffffffffffffffffffffff167f8c5be1e5ebec7d5bd14f71427d1e84f3dd0314c0f7b2291e5b200ac8c7c3b92583604051610da09190611888565b60405180910390a3505050565b6000610db98484610994565b90507fffffffffffffffffffffffffffffffffffffffffffffffffffffffffffffffff8114610e335781811015610e25576040517f08c379a0000000000000000000000000000000000000000000000000000000008152600401610e1c90611788565b60405180910390fd5b610e328484848403610be2565b5b50505050565b600073ffffffffffffffffffffffffffffffffffffffff168373ffffffffffffffffffffffffffffffffffffffff161415610ea9576040517f08c379a0000000000000000000000000000000000000000000000000000000008152600401610ea0906117e8565b60405180910390fd5b600073ffffffffffffffffffffffffffffffffffffffff168273ffffffffffffffffffffffffffffffffffffffff161415610f19576040517f08c379a0000000000000000000000000000000000000000000000000000000008152600401610f1090611708565b60405180910390fd5b610f248383836111ea565b60008060008573ffffffffffffffffffffffffffffffffffffffff1673ffffffffffffffffffffffffffffffffffffffff16815260200190815260200160002054905081811015610faa576040517f08c379a0000000000000000000000000000000000000000000000000000000008152600401610fa1906117a8565b60405180910390fd5b8181036000808673ffffffffffffffffffffffffffffffffffffffff1673ffffffffffffffffffffffffffffffffffffffff16815260200190815260200160002081905550816000808573ffffffffffffffffffffffffffffffffffffffff1673ffffffffffffffffffffffffffffffffffffffff168152602001908152602001600020600082825461103d91906118da565b925050819055508273ffffffffffffffffffffffffffffffffffffffff168473ffffffffffffffffffffffffffffffffffffffff167fddf252ad1be2c89b69c2b068fc378daa952ba7f163c4a11628f55a4df523b3ef846040516110a19190611888565b60405180910390a36110b48484846111ef565b50505050565b6110c26105b2565b816110cb610570565b6110d591906118da565b1115611116576040517f08c379a000000000000000000000000000000000000000000000000000000000815260040161110d90611808565b60405180910390fd5b61112082826111f4565b5050565b6000600560009054906101000a900473ffffffffffffffffffffffffffffffffffffffff16905081600560006101000a81548173ffffffffffffffffffffffffffffffffffffffff021916908373ffffffffffffffffffffffffffffffffffffffff1602179055508173ffffffffffffffffffffffffffffffffffffffff168173ffffffffffffffffffffffffffffffffffffffff167f8be0079c531659141344cd1fd0a4f28419497f9722a3daafe3b4186f6b6457e060405160405180910390a35050565b505050565b505050565b600073ffffffffffffffffffffffffffffffffffffffff168273ffffffffffffffffffffffffffffffffffffffff161415611264576040517f08c379a000000000000000000000000000000000000000000000000000000000815260040161125b90611868565b60405180910390fd5b611270600083836111ea565b806002600082825461128291906118da565b92505081905550806000808473ffffffffffffffffffffffffffffffffffffffff1673ffffffffffffffffffffffffffffffffffffffff16815260200190815260200160002060008282546112d791906118da565b925050819055508173ffffffffffffffffffffffffffffffffffffffff16600073ffffffffffffffffffffffffffffffffffffffff167fddf252ad1be2c89b69c2b068fc378daa952ba7f163c4a11628f55a4df523b3ef8360405161133c9190611888565b60405180910390a3611350600083836111ef565b5050565b60008135905061136381611dcf565b92915050565b60008135905061137881611de6565b92915050565b60006020828403121561139057600080fd5b600061139e84828501611354565b91505092915050565b600080604083850312156113ba57600080fd5b60006113c885828601611354565b92505060206113d985828601611354565b9150509250929050565b6000806000606084860312156113f857600080fd5b600061140686828701611354565b935050602061141786828701611354565b925050604061142886828701611369565b9150509250925092565b6000806040838503121561144557600080fd5b600061145385828601611354565b925050602061146485828601611369565b9150509250929050565b60006020828403121561148057600080fd5b600061148e84828501611369565b91505092915050565b6114a08161198a565b82525050565b6114af8161199c565b82525050565b60006114c0826118be565b6114ca81856118c9565b93506114da8185602086016119df565b6114e381611aa2565b840191505092915050565b60006114fb6023836118c9565b915061150682611ab3565b604082019050919050565b600061151e6035836118c9565b915061152982611b02565b604082019050919050565b60006115416026836118c9565b915061154c82611b51565b604082019050919050565b60006115646022836118c9565b915061156f82611ba0565b604082019050919050565b6000611587601d836118c9565b915061159282611bef565b602082019050919050565b60006115aa6026836118c9565b91506115b582611c18565b604082019050919050565b60006115cd6020836118c9565b91506115d882611c67565b602082019050919050565b60006115f06025836118c9565b91506115fb82611c90565b604082019050919050565b60006116136019836118c9565b915061161e82611cdf565b602082019050919050565b60006116366024836118c9565b915061164182611d08565b604082019050919050565b60006116596025836118c9565b915061166482611d57565b604082019050919050565b600061167c601f836118c9565b915061168782611da6565b602082019050919050565b61169b816119c8565b82525050565b6116aa816119d2565b82525050565b60006020820190506116c56000830184611497565b92915050565b60006020820190506116e060008301846114a6565b92915050565b6000602082019050818103600083015261170081846114b5565b905092915050565b60006020820190508181036000830152611721816114ee565b9050919050565b6000602082019050818103600083015261174181611511565b9050919050565b6000602082019050818103600083015261176181611534565b9050919050565b6000602082019050818103600083015261178181611557565b9050919050565b600060208201905081810360008301526117a18161157a565b9050919050565b600060208201905081810360008301526117c18161159d565b9050919050565b600060208201905081810360008301526117e1816115c0565b9050919050565b60006020820190508181036000830152611801816115e3565b9050919050565b6000602082019050818103600083015261182181611606565b9050919050565b6000602082019050818103600083015261184181611629565b9050919050565b600060208201905081810360008301526118618161164c565b9050919050565b600060208201905081810360008301526118818161166f565b9050919050565b600060208201905061189d6000830184611692565b92915050565b60006020820190506118b860008301846116a1565b92915050565b600081519050919050565b600082825260208201905092915050565b60006118e5826119c8565b91506118f0836119c8565b9250827fffffffffffffffffffffffffffffffffffffffffffffffffffffffffffffffff0382111561192557611924611a44565b5b828201905092915050565b600061193b826119c8565b9150611946836119c8565b9250817fffffffffffffffffffffffffffffffffffffffffffffffffffffffffffffffff048311821515161561197f5761197e611a44565b5b828202905092915050565b6000611995826119a8565b9050919050565b60008115159050919050565b600073ffffffffffffffffffffffffffffffffffffffff82169050919050565b6000819050919050565b600060ff82169050919050565b60005b838110156119fd5780820151818401526020810190506119e2565b83811115611a0c576000848401525b50505050565b60006002820490506001821680611a2a57607f821691505b60208210811415611a3e57611a3d611a73565b5b50919050565b7f4e487b7100000000000000000000000000000000000000000000000000000000600052601160045260246000fd5b7f4e487b7100000000000000000000000000000000000000000000000000000000600052602260045260246000fd5b6000601f19601f8301169050919050565b7f45524332303a207472616e7366657220746f20746865207a65726f206164647260008201527f6573730000000000000000000000000000000000000000000000000000000000602082015250565b7f53616c65546f6b656e3a20546865207072696365206973206c6573732074686560008201527f6e2074686520616d6f756e74206f6620746f6b656e0000000000000000000000602082015250565b7f4f776e61626c653a206e6577206f776e657220697320746865207a65726f206160008201527f6464726573730000000000000000000000000000000000000000000000000000602082015250565b7f45524332303a20617070726f766520746f20746865207a65726f20616464726560008201527f7373000000000000000000000000000000000000000000000000000000000000602082015250565b7f45524332303a20696e73756666696369656e7420616c6c6f77616e6365000000600082015250565b7f45524332303a207472616e7366657220616d6f756e742065786365656473206260008201527f616c616e63650000000000000000000000000000000000000000000000000000602082015250565b7f4f776e61626c653a2063616c6c6572206973206e6f7420746865206f776e6572600082015250565b7f45524332303a207472616e736665722066726f6d20746865207a65726f20616460008201527f6472657373000000000000000000000000000000000000000000000000000000602082015250565b7f45524332304361707065643a2063617020657863656564656400000000000000600082015250565b7f45524332303a20617070726f76652066726f6d20746865207a65726f2061646460008201527f7265737300000000000000000000000000000000000000000000000000000000602082015250565b7f45524332303a2064656372656173656420616c6c6f77616e63652062656c6f7760008201527f207a65726f000000000000000000000000000000000000000000000000000000602082015250565b7f45524332303a206d696e7420746f20746865207a65726f206164647265737300600082015250565b611dd88161198a565b8114611de357600080fd5b50565b611def816119c8565b8114611dfa57600080fd5b5056fea264697066735822122067d5c9181b567e19c30f4d48db32f3c9c39ed331c256ab6990d50ae1b22ea26964736f6c63430008020033",
  "immutableReferences": {
    "778": [
      {
        "length": 32,
        "start": 1462
      }
    ]
  },
  "source": "    // SPDX-License-Identifier: MIT\r\npragma solidity ^0.8.2;\r\nimport \"@openzeppelin/contracts/token/ERC20/extensions/ERC20Capped.sol\";\r\nimport \"@openzeppelin/contracts/access/Ownable.sol\";\r\n\r\ncontract SaleToken is ERC20Capped,Ownable{\r\n    constructor(uint _capAmount) ERC20Capped(_capAmount*10**decimals()) ERC20(\"Sale_Token\",\"ST\"){\r\n        \r\n    }\r\n\r\n    function tokenPrice(uint _amount) public pure returns(uint){\r\n        uint Price=_amount*1000000000;  // price of one token is one Gwei\r\n        return Price; \r\n    }\r\n\r\n    function mint(address _to,uint _amount) external payable {\r\n        require(msg.value>=tokenPrice(_amount),\"SaleToken: The price is less then the amount of token\");\r\n        _mint(_to,_amount);\r\n    }\r\n\r\n    \r\n    function withdraw(address _owner,uint _amount) external onlyOwner() {\r\n        payable(_owner).transfer(_amount);\r\n    }\r\n\r\n    // Helper function to check the balance of this contract\r\n    function getBalance() public view returns (uint) {\r\n        return address(this).balance;\r\n    }\r\n}\r\n\r\n",
  "sourcePath": "C:\\BigImmersiive\\4thTask\\contracts\\SaleToken.sol",
  "compiler": {
    "name": "solc",
    "version": "0.8.2+commit.661d1103.Emscripten.clang"
  },
  "schemaVersion": "3.4.6",
  "updatedAt": "2022-04-13T08:18:59.935Z",
  "networkType": "ethereum",
  "devdoc": {
    "kind": "dev",
    "methods": {
      "allowance(address,address)": {
        "details": "See {IERC20-allowance}."
      },
      "approve(address,uint256)": {
        "details": "See {IERC20-approve}. NOTE: If `amount` is the maximum `uint256`, the allowance is not updated on `transferFrom`. This is semantically equivalent to an infinite approval. Requirements: - `spender` cannot be the zero address."
      },
      "balanceOf(address)": {
        "details": "See {IERC20-balanceOf}."
      },
      "cap()": {
        "details": "Returns the cap on the token's total supply."
      },
      "decimals()": {
        "details": "Returns the number of decimals used to get its user representation. For example, if `decimals` equals `2`, a balance of `505` tokens should be displayed to a user as `5.05` (`505 / 10 ** 2`). Tokens usually opt for a value of 18, imitating the relationship between Ether and Wei. This is the value {ERC20} uses, unless this function is overridden; NOTE: This information is only used for _display_ purposes: it in no way affects any of the arithmetic of the contract, including {IERC20-balanceOf} and {IERC20-transfer}."
      },
      "decreaseAllowance(address,uint256)": {
        "details": "Atomically decreases the allowance granted to `spender` by the caller. This is an alternative to {approve} that can be used as a mitigation for problems described in {IERC20-approve}. Emits an {Approval} event indicating the updated allowance. Requirements: - `spender` cannot be the zero address. - `spender` must have allowance for the caller of at least `subtractedValue`."
      },
      "increaseAllowance(address,uint256)": {
        "details": "Atomically increases the allowance granted to `spender` by the caller. This is an alternative to {approve} that can be used as a mitigation for problems described in {IERC20-approve}. Emits an {Approval} event indicating the updated allowance. Requirements: - `spender` cannot be the zero address."
      },
      "name()": {
        "details": "Returns the name of the token."
      },
      "owner()": {
        "details": "Returns the address of the current owner."
      },
      "renounceOwnership()": {
        "details": "Leaves the contract without owner. It will not be possible to call `onlyOwner` functions anymore. Can only be called by the current owner. NOTE: Renouncing ownership will leave the contract without an owner, thereby removing any functionality that is only available to the owner."
      },
      "symbol()": {
        "details": "Returns the symbol of the token, usually a shorter version of the name."
      },
      "totalSupply()": {
        "details": "See {IERC20-totalSupply}."
      },
      "transfer(address,uint256)": {
        "details": "See {IERC20-transfer}. Requirements: - `to` cannot be the zero address. - the caller must have a balance of at least `amount`."
      },
      "transferFrom(address,address,uint256)": {
        "details": "See {IERC20-transferFrom}. Emits an {Approval} event indicating the updated allowance. This is not required by the EIP. See the note at the beginning of {ERC20}. NOTE: Does not update the allowance if the current allowance is the maximum `uint256`. Requirements: - `from` and `to` cannot be the zero address. - `from` must have a balance of at least `amount`. - the caller must have allowance for ``from``'s tokens of at least `amount`."
      },
      "transferOwnership(address)": {
        "details": "Transfers ownership of the contract to a new account (`newOwner`). Can only be called by the current owner."
      }
    },
    "version": 1
  },
  "userdoc": {
    "kind": "user",
    "methods": {},
    "version": 1
  }
}